:020000040800F2
:10000000780600208901000891010008930100088A
:100010009501000897010008990100080000000000
:100020000000000000000000000000009B0100082C
:100030009D010008000000009F010008A1010008C8
:10004000A3010008A3010008A3010008A301000800
:10005000A3010008A3010008A3010008A3010008F0
:10006000A3010008A3010008A3010008A3010008E0
:10007000A3010008A3010008A3010008A3010008D0
:10008000A3010008A3010008A30100081D05000842
:1000900045050008A3010008A3010008A30100080A
:1000A000A3010008A3010008A3010008A3010008A0
:1000B000A3010008A3010008A3010008A301000890
:1000C000A3010008A3010008A3010008A301000880
:1000D000A3010008A3010008A3010008A301000870
:1000E000A3010008A3010008A301000800F002F822
:1000F00000F03AF80AA090E8000C82448344AAF188
:100100000107DA4501D100F02FF8AFF2090EBAE885
:100110000F0013F0010F18BFFB1A43F0010318473B
:10012000A8050000C8050000103A24BF78C878C1AF
:10013000FAD8520724BF30C830C144BF04680C60ED
:10014000704700000023002400250026103A28BF35
:1001500078C1FBD8520728BF30C148BF0B60704739
:100160001FB51FBD10B510BD00F031F81146FFF7E7
:10017000F7FF00F04BFA00F04FF803B4FFF7F2FF7F
:1001800003BC00F057F800000948804709480047C1
:10019000FEE7FEE7FEE7FEE7FEE7FEE7FEE7FEE737
:1001A000FEE7FEE704480549054A064B7047000094
:1001B000BD040008ED00000878000020780600204B
:1001C000780200207802002070477047704775461B
:1001D00000F02CF8AE4605006946534620F00700B3
:1001E000854618B020B5FFF7DDFFBDE820404FF091
:1001F00000064FF000074FF000084FF0000B21F011
:100200000701AC46ACE8C009ACE8C009ACE8C009DD
:10021000ACE8C0098D46704710B50446AFF30080C6
:100220002046BDE81040FFF7A8BF00000048704717
:100230001400002001491820ABBEFEE72600020092
:10024000704700002748006820F002002549086038
:1002500000BF2448001D006800F002000028F8D10B
:100260002048006840F001001E49086000BF1D489A
:10027000001D006800F001000028F8D00020194996
:100280001C3108600846006840F4402008600846B9
:10029000006840F4801008600846006840F0E900FB
:1002A00008601048006820F004000E490860084605
:1002B000006840F0080008600846006820F0100060
:1002C00008600846006840F02000086008460068A2
:1002D00040F0400008600846006820F48030086064
:1002E00070470000006400400B48006840F0804008
:1002F0000949086008481C38006820F001000649D8
:100300001C39086000BF04481838006800F001007C
:100310000028F8D1704700001C6400401A4A126897
:1003200042F00102184B1A60174A0C32126842F070
:100330000102154B0C331A60134A121D126822F089
:100340000102114B1B1D1A600F4A1432126822F071
:1003500001020D4B14331A604FF480000B490A4A16
:1003600040321060121D1160074A1C32126842F0C0
:100370000102054B1C331A60034A126822F0010285
:10038000014B1A6070470000006600400000E0FF6B
:100390000848806940F010000649886106484068B6
:1003A00020F47000044948600846406840F400109A
:1003B00048607047001002400010014000F01F022A
:1003C000012191404209920002F1E022C2F800119D
:1003D000704710B500F002F810BD00000CB5002009
:1003E000019000903348006840F480303149086043
:1003F00000BF3048006800F4003000900198401CB5
:100400000190009818B90198B0F5A06FF1D1294872
:10041000006800F4003010B10120009001E00020DD
:1004200000900098012843D12348006840F0100054
:10043000214908600846006820F007000860084667
:10044000006840F0020008601A4840681949486096
:100450000846406848600846406840F4806048604C
:100460000846406820F47C1048600846406840F424
:10047000E81048600846006840F08070086000BFDF
:100480000C48006800F000700028F9D00948406866
:1004900020F00300074948600846406840F0020029
:1004A000486000BF0348406800F00C000828F9D1FC
:1004B0000CBD0000001002400020024010B513489F
:1004C000006840F001001149086008464068104982
:1004D00008400E494860084600680E4908400B492C
:1004E00008600846006820F48020086008464068DC
:1004F00020F4FE0048604FF41F008860FFF769FF9A
:100500004FF000600449086010BD00000010024078
:100510000000FFF8FFFFF6FE08ED00E00748006866
:1005200000F0010040B1012005490870034800684F
:1005300040F0010001490860704700000864004075
:10054000110000201B48006800F00300C0B11A48E9
:1005500000681A4908601848001D006818490860BA
:100560001548083000681749086013480C300068C7
:10057000154908600F48006840F020000D490860E8
:100580000C48006800F0080028B10A48006840F0F4
:100590000800084908600748006800F0100040B1F2
:1005A0000448006840F01000024908600120074933
:1005B000087070470C640040B065004000000020E7
:1005C00004000020080000200C0000201000002083
:1005D0000848006840F002000649086008460068C4
:1005E00040F0040008600846006840F00800086019
:1005F00070470000146400400348006840F00100A8
:10060000014908607047000014640040294880696F
:1006100040F01000274988610846C06940F000702A
:10062000C861FFF7D5FFFFF7E7FF1420FFF7C6FE0D
:100630001320FFF7C3FEFFF7ABFE4FF400501E4937
:100640000861FFF7FFFDFFF769FEFFF74DFE30E0A1
:100650001A4A1278012A16D10022184B1A704FF448
:100660008002174B1A600023154A121D136012688E
:1006700042F00803124A121D1360121F126842F062
:1006800001020F4B1A600F4A1268C2F380010D4A33
:10069000126840F2FF7303EA525029B9022803D1CD
:1006A0000203054B5A6103E04FF40052024B1A61FA
:1006B00000BFCDE7001002400010014011000020F3
:1006C0008065004000000020E806000800000020CF
:1006D0001400000028010008FC0600081400002097
:1006E0006406000044010008000000000000000053
:0C06F000000000000000000000010000FD
:040000050800018965
:00000001FF
