:020000040800F2
:100000007006002089010008910100089301000892
:100010009501000897010008990100080000000000
:100020000000000000000000000000009B0100082C
:100030009D010008000000009F010008A1010008C8
:10004000A3010008A3010008A3010008A301000800
:10005000A3010008A3010008A3010008A3010008F0
:10006000A3010008A3010008A3010008A3010008E0
:10007000A3010008A3010008A3010008A3010008D0
:10008000A3010008A3010008A3010008A3010008C0
:10009000A3010008A3010008A3010008A3010008B0
:1000A000A3010008A3010008A3010008A3010008A0
:1000B000A3010008A3010008A3010008A301000890
:1000C000A3010008A3010008A3010008A301000880
:1000D000A3010008A3010008A3010008A301000870
:1000E000A3010008A3010008A301000800F002F822
:1000F00000F03AF80AA090E8000C82448344AAF188
:100100000107DA4501D100F02FF8AFF2090EBAE885
:100110000F0013F0010F18BFFB1A43F0010318473B
:10012000FC0400001C050000103A24BF78C878C108
:10013000FAD8520724BF30C830C144BF04680C60ED
:10014000704700000023002400250026103A28BF35
:1001500078C1FBD8520728BF30C148BF0B60704739
:100160001FB51FBD10B510BD00F031F81146FFF7E7
:10017000F7FF00F021FA00F04FF803B4FFF7F2FFA9
:1001800003BC00F057F800000948804709480047C1
:10019000FEE7FEE7FEE7FEE7FEE7FEE7FEE7FEE737
:1001A000FEE7FEE704480549054A064B7047000094
:1001B00001050008ED000008700000207006002016
:1001C000700200207002002070477047704775462B
:1001D00000F02CF8AE4605006946534620F00700B3
:1001E000854618B020B5FFF7DDFFBDE820404FF091
:1001F00000064FF000074FF000084FF0000B21F011
:100200000701AC46ACE8C009ACE8C009ACE8C009DD
:10021000ACE8C0098D46704710B50446AFF30080C6
:100220002046BDE81040FFF7A8BF00000048704717
:100230001000002001491820ABBEFEE72600020096
:100240007047000010B52A48006820F002002849D5
:10025000086000BF2648006800F002000028F9D1BD
:100260002348006840F001002149086000BF204891
:10027000001D006800F001000028F8D000201C4993
:100280001C3108600846006840F00C000860084611
:10029000006840F0010008600846006840F0E9008E
:1002A00008601348006820F00400114908600846FF
:1002B000006840F0080008600846006820F0100060
:1002C00008600846006840F02000086008460068A2
:1002D00040F0400008600846006840F08000086078
:1002E0000846006820F48030086000F01FF810BD58
:1002F0000064004010B5FFF7A5FF0B48006840F010
:1003000080400949086008481C38006820F0010056
:1003100005491C39086000BF03481838006800F020
:1003200001000028F8D110BD1C6400401A4A126870
:1003300042F00102184B1A60174A0C32126842F060
:100340000102154B0C331A60134A121D126822F079
:100350000102114B1B1D1A600F4A1432126822F061
:1003600001020D4B14331A604FF4001041420A4A47
:1003700040321060121D1160074A1C32126842F0B0
:100380000102054B1C331A60034A126822F0010275
:10039000014B1A6070470000006600400848806901
:1003A00040F01000064988610648406820F470005B
:1003B000044948600846406840F4001048607047AF
:1003C000001002400010014000BF0D48006800F01E
:1003D00003000028F9D00B4800680B490860094861
:1003E000001D00680949086006480830006808498F
:1003F000086004480C300068064908607047000037
:100400000C640040B06500400000002004000020A3
:10041000080000200C00002010B500F001F810BD0D
:100420000CB50020019000903348006840F4803003
:100430003149086000BF3048006800F40030009087
:100440000198401C0190009818B90198B0F5A06F70
:10045000F1D12948006800F4003010B1012000906B
:1004600001E0002000900098012843D12348006853
:1004700040F01000214908600846006820F007009D
:1004800008600846006840F0020008601A484068AA
:10049000194948600846406848600846406840F48A
:1004A000806048600846406820F47C104860084638
:1004B000406840F4E81048600846006840F08070EA
:1004C000086000BF0C48006800F000700028F9D0F8
:1004D0000948406820F00300074948600846406822
:1004E00040F00200486000BF0348406800F00C0084
:1004F0000828F9D10CBD0000001002400020024085
:1005000010B51348006840F0010011490860084622
:100510004068104908400E494860084600680E4986
:1005200008400B4908600846006820F480200860F5
:100530000846406820F4FE0048604FF41F008860C1
:10054000FFF76AFF4FF000600449086010BD00002B
:10055000001002400000FFF8FFFFF6FE08ED00E08B
:100560004FF400101249086000211148001D01607D
:10057000006840F008010E48001D0160006840F46A
:1005800080710B48001D0160001F006840F00100F1
:100590000749086000BF0748006800F00100002814
:1005A000F9D00448006840F0010002490860704733
:1005B00080650040086400401548806940F01000E4
:1005C000134988610846C06940F00070C861FFF7B0
:1005D000E5FEFFF78FFE19E0FFF7C2FFFFF7F4FE1D
:1005E0000C480068C0F380050A48006840F2FF71BB
:1005F00001EA50542DB9022C03D120030649486169
:1006000003E04FF400500449086100BFE4E7000034
:100610000010024000000020001001403C060008CD
:100620000000002010000000280100084C0600080F
:1006300010000020600600004401000800000000D7
:0C064000000000000000000000000000AE
:040000050800018965
:00000001FF
