:020000040800F2
:10000000780600208901000891010008930100088A
:100010009501000897010008990100080000000000
:100020000000000000000000000000009B0100082C
:100030009D010008000000009F010008A1010008C8
:10004000A3010008A3010008A3010008A301000800
:10005000A3010008A3010008A3010008A3010008F0
:10006000A3010008A3010008A3010008A3010008E0
:10007000A3010008A3010008A3010008A3010008D0
:10008000A3010008A3010008A3010008C10A000899
:100090000D0B0008A3010008A3010008A30100083C
:1000A000A3010008A3010008A3010008A3010008A0
:1000B000A3010008A3010008A3010008A301000890
:1000C000A3010008A3010008A3010008A301000880
:1000D000A3010008A3010008A3010008A301000870
:1000E000A3010008A3010008A301000800F002F822
:1000F00000F03AF80AA090E8000C82448344AAF188
:100100000107DA4501D100F02FF8AFF2090EBAE885
:100110000F0013F0010F18BFFB1A43F0010318473B
:10012000A40B0000C40B0000103A24BF78C878C1AB
:10013000FAD8520724BF30C830C144BF04680C60ED
:10014000704700000023002400250026103A28BF35
:1001500078C1FBD8520728BF30C148BF0B60704739
:100160001FB51FBD10B510BD00F031F81146FFF7E7
:10017000F7FF00F03FFD00F04FF803B4FFF7F2FF88
:1001800003BC00F057F800000948804709480047C1
:10019000FEE7FEE7FEE7FEE7FEE7FEE7FEE7FEE737
:1001A000FEE7FEE704480549054A064B7047000094
:1001B000610A0008ED0000087800002078060020A1
:1001C000780200207802002070477047704775461B
:1001D00000F02CF8AE4605006946534620F00700B3
:1001E000854618B020B5FFF7DDFFBDE820404FF091
:1001F00000064FF000074FF000084FF0000B21F011
:100200000701AC46ACE8C009ACE8C009ACE8C009DD
:10021000ACE8C0098D46704710B50446AFF30080C6
:100220002046BDE81040FFF7A8BF00000048704717
:100230001400002001491820ABBEFEE72600020092
:10024000704700002748006820F002002549086038
:1002500000BF2448001D006800F002000028F8D10B
:100260002048006840F001001E49086000BF1D489A
:10027000001D006800F001000028F8D00020194996
:100280001C3108600846006840F4402008600846B9
:10029000006840F4801008600846006840F0E900FB
:1002A00008601048006820F004000E490860084605
:1002B000006840F0080008600846006820F0100060
:1002C00008600846006840F02000086008460068A2
:1002D00040F0400008600846006820F48030086064
:1002E00070470000006400400E48006820F00200E3
:1002F0000C49086000BF0B48001D006800F00200B8
:100300000028F8D10748006820F00100054908607E
:1003100000BF0448001D006800F001000028F8D16B
:100320007047000000640040F0B506460B46082AFE
:1003300000DD08222C48006800F0806008B1002130
:100340000FE02948006800F0006008B1012108E0D2
:100350002548006800F0805008B1022101E0022029
:10036000F0BD00240025002006E01F5C4FEAC00C11
:1003700007FA0CF73C43401C042801DA9042F4DBF6
:10038000042008E01F5CA0F1040C4FEACC0C07FA33
:100390000CF73D43401C9042F4DB7705134800EB1B
:1003A000011007600027114800EB011047600F485B
:1003B00000EB0110406810430C4F07EB0117786009
:1003C0000A4800EB01108460084800EB0110C5608A
:1003D000064800EB0110006840F00107034800EBFD
:1003E000011007600020BBE7086400408065004002
:1003F0001A4A126842F00102184B1A60174A0C326E
:10040000126842F00102154B0C331A60134A121D98
:10041000126822F00102114B1B1D1A600F4A1432A0
:10042000126822F001020D4B14331A604FF4800061
:100430000B490A4A40321060121D1160074A1C32F3
:10044000126842F00102054B1C331A60034A12681D
:1004500022F00102014B1A60704700000066004064
:100460000000E0FF2648806940F0040024498861CC
:100470000846806940F0080088610846806940F0BD
:10048000100088610846806940F0010088611D48BD
:10049000006820F470401B4908600846006840F47A
:1004A000804008600846006820F470200860084614
:1004B000006840F4302008601348406820F4C040D1
:1004C000114948601148406820F470000F494860A5
:1004D0000846406840F40010486048140861094824
:1004E000001F006800F07F400649091F08600846A9
:1004F0000068074908430349091F08607047000066
:1005000000100240040801400000014000100140BA
:100510002222330008B50020009002E00098401C21
:10052000009000980228F9DB08BD000070B5044671
:100530000D46164600BF202018490860FFF7EAFF65
:10054000102016490860FFF7E5FF20201349091D18
:100550000860FFF7DFFF10201049091D0860FFF752
:10056000D9FF00BF45EA4401C8B200F019F830468F
:1005700000F016F800BF20200849091D0860FFF7A9
:10058000C9FF102005490860FFF7C4FF2020034978
:100590000860FFF7BFFF00BF70BD000010080140FA
:1005A00070B5044600261AE004F0800018B120203F
:1005B0001749086003E020201549091D0860FFF76E
:1005C000A9FF102012490860FFF7A4FF102010496E
:1005D000091D0860FFF79EFF6006040E761C082EBA
:1005E000E2DB20200A490860FFF794FF1020084949
:1005F0000860FFF78FFF064808380068C0F3401511
:1006000010200349091D0860FFF784FF284670BDCC
:10061000100801402DE9F04104460D4680260027D0
:10062000012C02D1681E3043C7B2022C04D1681ECF
:1006300040F040003043C7B2384600F03FF9BDE813
:10064000F08110B50F2000F0A7FA08220021272022
:10065000FFF76CFF4FF47A7000F09EFA3822002109
:100660002720FFF763FF3C2200212720FFF75EFFD2
:10067000382200212720FFF759FF052000F08CFACF
:10068000382200212720FFF751FF3C22002127209C
:10069000FFF74CFF382200212720FFF747FF0120FA
:1006A00000F07AFA382200212720FFF73FFF3C2292
:1006B00000212720FFF73AFF382200212720FFF7EB
:1006C00035FF012000F068FA282200212720FFF7DB
:1006D0002DFF2C2200212720FFF728FF28220021B0
:1006E0002720FFF723FF012000F056FA28220021DF
:1006F0002720FFF71BFF2C2200212720FFF716FFE2
:10070000282200212720FFF711FF012000F044FAE2
:10071000882200212720FFF709FF8C2200212720B3
:10072000FFF704FF882200212720FFF7FFFE0120AA
:1007300000F032FA082200212720FFF7F7FE0C22F2
:1007400000212720FFF7F2FE082200212720FFF7D3
:10075000EDFE012000F020FAC82200212720FFF73B
:10076000E5FECC2200212720FFF7E0FEC822002171
:100770002720FFF7DBFE012000F00EFA08220021FF
:100780002720FFF7D3FE0C2200212720FFF7CEFE03
:10079000082200212720FFF7C9FE012000F0FCF904
:1007A000182200212720FFF7C1FE1C22002127204C
:1007B000FFF7BCFE182200212720FFF7B7FE02201A
:1007C00000F0EAF9082200212720FFF7AFFE0C22F3
:1007D00000212720FFF7AAFE082200212720FFF78B
:1007E000A5FE012000F0D8F96B2200212720FFF799
:1007F0009DFE6C2200212720FFF798FE6822002131
:100800002720FFF793FE012000F0C6F908220021FF
:100810002720FFF78BFE0C2200212720FFF786FE02
:10082000082200212720FFF781FE012000F0B4F903
:10083000282200212720FFF779FE2C2200212720E3
:10084000FFF774FE282200212720FFF76FFE01200A
:1008500000F0A2F910BD10B5044604F0F00040F01D
:10086000090200212720FFF761FE04F0F00040F0AC
:100870000D0200212720FFF759FE04F0F00040F0A0
:10088000090200212720FFF751FE092040EA041049
:10089000C2B200212720FFF749FE0D2040EA0410D4
:1008A000C2B200212720FFF741FE092040EA0410D0
:1008B000C2B200212720FFF739FE10BD10B5044653
:1008C00004F0F00040F0080200212720FFF72EFE80
:1008D00004F0F00040F00C0200212720FFF726FE74
:1008E00004F0F00040F0080200212720FFF71EFE70
:1008F000082040EA0410C2B200212720FFF716FEAC
:100900000C2040EA0410C2B200212720FFF70EFE9F
:10091000082040EA0410C2B200212720FFF706FE9B
:1009200010BD000070B500BF0120FFF7C7FF00BF7A
:1009300001210846FFF76EFE06A50826002404E004
:10094000285DFFF788FF601CC4B2B442F8DB00BF2B
:1009500070BD0000554E4C4F434B45440000000015
:1009600000F01F02012191404209920002F1E022B1
:10097000C2F80011704710B500F002F810BD000079
:100980000CB50020019000903348006840F480309E
:100990003149086000BF3048006800F40030009022
:1009A0000198401C0190009818B90198B0F5A06F0B
:1009B000F1D12948006800F4003010B10120009006
:1009C00001E0002000900098012843D123480068EE
:1009D00040F01000214908600846006820F0070038
:1009E00008600846006840F0020008601A48406845
:1009F000194948600846406848600846406840F425
:100A0000806048600846406820F47C1048600846D2
:100A1000406840F4E81048600846006840F0807084
:100A2000086000BF0C48006800F000700028F9D092
:100A30000948406820F003000749486008464068BC
:100A400040F00200486000BF0348406800F00C001E
:100A50000828F9D10CBD000000100240002002401F
:100A600010B51348006840F00100114908600846BD
:100A70004068104908400E494860084600680E4921
:100A800008400B4908600846006820F48020086090
:100A90000846406820F4FE0048604FF41F0088605C
:100AA000FFF769FF4FF000600449086010BD0000C7
:100AB000001002400000FFF8FFFFF6FE08ED00E026
:100AC0001049086800F0010141B10E49096841F080
:100AD00001010C4A116001210B4A117000F4807170
:100AE00029B10849096841F48071064A116000F48F
:100AF000803129B10349096841F48031014A11600C
:100B00007047000008640040110000201B48006886
:100B100000F00300C0B11A4800681A49086018487C
:100B2000001D00681849086015480830006817491A
:100B3000086013480C300068154908600F480068C9
:100B400040F020000D4908600C48006800F00800E3
:100B500028B10A48006840F00800084908600748C2
:100B6000006800F0100040B10448006840F0100038
:100B70000249086001200749087070470C64004072
:100B8000B0650040000000200400002008000020A4
:100B90000C0000201000002008B50021009102E0A8
:100BA0000099491C0091C0EB4011C1EB0021009A53
:100BB000B2EB411FF4DB08BD0848006840F00200BA
:100BC000064908600846006840F0040008600846CE
:100BD000006840F00800086070470000146400409E
:100BE0000348006840F001000149086070470000B8
:100BF000146400401CB52C48806940F010002A495C
:100C000088610846C06940F00070C861FFF72AFC9F
:100C1000FFF717FD00BF0120FFF750FE00BFFFF7F1
:100C200081FEFFF7C9FFFFF7DBFF1420FFF798FEF7
:100C30001320FFF795FEFFF705FBFFF7D9FBFFF742
:100C400053FB1AA103C9CDE900012BE01948007834
:100C5000012807D1002017490870082269460220A0
:100C6000FFF762FB14480068C0F380051248006873
:100C700040F2FF7101EA50542DB9022C03D1200338
:100C80000E49486103E04FF400500C4908610C48DC
:100C9000007830B14FF400500849486100200849FD
:100CA000087000BFD2E70000001002401122334458
:100CB00055667788110000200000002000100140D8
:100CC00010000020E40C00080000002014000000C8
:100CD00028010008F80C0008140000206406000039
:100CE00044010008000000000000000000000000B7
:080CF0000000000000010000FB
:040000050800018965
:00000001FF
